:0600000000F063EF00F0C8
:060008006082F2EF00F03F
:100018006080D8CFC8F0E8CFC9F0E0CFCAF0FACFF7
:10002800CBF0FBCFCCF0E9CFCDF0EACFCEF0E1CFEB
:10003800CFF0E2CFD0F0D9CFD1F0DACFD2F0F3CFF2
:10004800D3F0F4CFD4F0F6CFD5F0F7CFD6F0F8CF81
:10005800D7F0F5CFD8F060C0D9F061C0DAF062C04F
:10006800DBF063C0DCF0DCC063F0DBC062F0DAC058
:1000780061F0D9C060F0D8C0F5FFD7C0F8FFD6C08E
:10008800F7FFD5C0F6FFD4C0F4FFD3C0F3FFD2C04A
:10009800DAFFD1C0D9FFD0C0E2FFCFC0E1FFCEC0A8
:1000A800EAFFCDC0E9FFCCC0FBFFCBC0FAFFCAC056
:1000B800E0FFC9C0E8FFC8C0D8FF6090100009EF92
:0200C80005F041
:1001000000303132333435363738396162636465F3
:10011000660A0A0A0A57656C636F6D6520746F2062
:100120006D6973740A006D69737430207374617241
:1001300074696E670A006D6973743120737461723B
:1001400074696E670A006D6973743220737461722A
:1001500074696E670A006D6973743020707265731C
:100160007365640A006D697374312070726573730E
:1001700065640A006D69737432207072657373650B
:10018000640A00776174657220686967680A006DA7
:1001900069737430206F66660A006D69737431206C
:1001A0006F66660A006D69737432206F66660A00B6
:1001B0007761746572206C6F770A006D69737430B3
:1001C000206F6E0A006D69737431206F6E0A006DC6
:1001D00069737432206F6E0A00414E414C4F473AAA
:0301E000200000FC
:1001E400FACF4BF0FBCF4CF0E9CF4DF0EACF4EF015
:1001F400E1CF4FF0E2CF50F0D9CF51F0DACF52F047
:10020400F3CF53F0F4CF54F0F6CF55F0F7CF56F0C8
:10021400F8CF57F0F5CF58F060C059F061C05AF0EC
:1002240062C05BF063C05CF03A9064D23A80F2A49E
:100234000FD23A90F294F80ED76E310ED66E384A39
:10024400392A324A332A5E505F10D8B403D05E068E
:10025400D8A05F06335004E1650E325CD8A0F8D113
:1002640036C03BF037C03CF034C03DF035C03EF002
:100274005BEC04F03BC036F03CC037F030C03BF0E0
:1002840031C03CF02AC03DF02BC03EF05BEC04F0E2
:100294003BC030F03CC031F02EC03BF02FC03CF0EE
:1002A40028C03DF029C03EF05BEC04F03BC02EF0CA
:1002B4003CC02FF02CC03BF02DC03CF026C03DF0DC
:1002C40027C03EF05BEC04F03BC02CF03CC02DF0AA
:1002D400D90E3C6E010E3D6E5DEC05F034C049F064
:1002E40035C04AF07DEC05F036C049F037C04AF01D
:1002F4007DEC05F030C049F031C04AF07DEC05F0EA
:100304002EC049F02FC04AF07DEC05F02CC049F016
:100314002DC04AF07DEC05F0630E3C6E010E3D6E7F
:100324005DEC05F05E505F10D8A439D0375004E17D
:10033400410E365CD8A012D0000E256E000E246E3D
:1003440022502310D8A42BD0224A232A830E3C6E99
:10035400010E3D6E5DEC05F08A9621D037501FE109
:10036400200E365CD8B01BD0000E236E000E226E19
:10037400255007E10A0E245CD8B003D0244A252A6C
:100384000ED00A0E24182510D8A409D0244A252AF0
:10039400B00E3C6E010E3D6E5DEC05F08A8692B2A5
:1003A40011D0640E0226000E0322F40E025C010E2C
:1003B4000358D8A007D0560E3C6E010E3D6E5DEC7E
:1003C40005F09282315004E1DD0E305CD8A01CD0DF
:1003D400000E056E000E046EB80E065C0B0E075878
:1003E400D8B005D0640E0626000E072228D001B02E
:1003F40002D001B224D0019001828F0E3C6E010E16
:100404003D6E5DEC05F01BD0000E076E000E066E0F
:10041400B80E045C0B0E0558D8B005D0640E042643
:10042400000E05220CD001A002D001B208D0018038
:100434000182BB0E3C6E010E3D6E5DEC05F001B217
:1004440001B014D09292000E036E000E026E018071
:10045400000E076E000E066E000E056E000E046E92
:10046400260E3C6E010E3D6E5DEC05F092B411D08B
:10047400640E0926000E0A22F40E095C010E0A58C5
:10048400D8A007D0650E3C6E010E3D6E5DEC05F004
:1004940092842F5004E1DD0E2E5CD8A01CD0000EF7
:1004A4000C6E000E0B6EB80E0D5C0B0E0E58D8B011
:1004B40005D0640E0D26000E0E2228D008B002D0FE
:1004C40008B224D0089008829A0E3C6E010E3D6E4C
:1004D4005DEC05F01BD0000E0E6E000E0D6EB80E16
:1004E4000B5C0B0E0C58D8B005D0640E0B26000E16
:1004F4000C220CD008A002D008B208D008800882D0
:10050400C50E3C6E010E3D6E5DEC05F008B208B000
:1005140014D09294000E0A6E000E096E0880000E2C
:100524000E6E000E0D6E000E0C6E000E0B6E360E6F
:100534003C6E010E3D6E5DEC05F092B811D0640E78
:100544001026000E1122F40E105C010E1158D8A0D2
:1005540007D0740E3C6E010E3D6E5DEC05F0928882
:100564002D5004E1DD0E2C5CD8A01CD0000E136EBF
:10057400000E126EB80E145C0B0E1558D8B005D0D0
:10058400640E1426000E152228D00FB002D00FB22C
:1005940024D00F900F82A50E3C6E010E3D6E5DECD3
:1005A40005F01BD0000E156E000E146EB80E125C12
:1005B4000B0E1358D8B005D0640E1226000E132269
:1005C4000CD00FA002D00FB208D00F800F82CF0E34
:1005D4003C6E010E3D6E5DEC05F00FB20FB014D011
:1005E4009298000E116E000E106E0F80000E156EA4
:1005F400000E146E000E136E000E126E460E3C6E4C
:10060400010E3D6E5DEC05F0000E336E000E326E91
:10061400000E356E000E346E000E376E000E366E10
:10062400000E316E000E306E000E2F6E000E2E6E18
:10063400000E2D6E000E2C6E000E2B6E000E2A6E18
:10064400000E296E000E286E000E276E000E266E18
:100654009EAC4BD03A909E9CC2CF5DF038D0110E28
:10066400C26E355041E13428D8B03ED0C45036264D
:10067400000E3722344A352A37D00D0EC26E2B5065
:1006840033E12A28D8B030D0C4503026000E3122AD
:100694002A4A2B2A29D0190EC26E295025E128286E
:1006A400D8B022D0C4502E26000E2F22284A292A40
:1006B4001BD0010EC26E275017E12628D8B014D0E3
:1006C400C4502C26000E2D22264A272A0DD05D5018
:1006D400010AD8B4C4D70C0AD8B4DDD71C0AD8B4DC
:1006E400CCD7080AD8B4E5D7C2829EAA03D03A90E0
:1006F400C8EC04F03AA09AD55CC063F05BC062F029
:100704005AC061F059C060F058C0F5FF57C0F8FFF7
:1007140056C0F7FF55C0F6FF54C0F4FF53C0F3FFB3
:1007240052C0DAFF51C0D9FF50C0E2FF4FC0E1FF11
:100734004EC0EAFF4DC0E9FF4CC0FBFF4BC0FAFFBF
:1007440060921100100E475C270E4858D8A00ED0B6
:1007540047C03BF048C03CF0270E3E6E100E3D6E85
:100764005BEC04F03B50300F28EC05F0E80E475CDE
:10077400030E4858D8A018D0030E3E6EE80E3D6E06
:1007840047C03BF048C03CF05BEC04F03BC042F097
:100794003CC043F0000E456E0A0E446EA7EC04F014
:1007A4004250300F28EC05F0485004E1640E475CD9
:1007B400D8A018D0000E3E6E640E3D6E47C03BF0CC
:1007C40048C03CF05BEC04F03BC042F03CC043F05A
:1007D400000E456E0A0E446EA7EC04F04250300F32
:1007E40028EC05F0485004E10A0E475CD8A018D064
:1007F400000E3E6E0A0E3D6E47C03BF048C03CF012
:100804005BEC04F03BC042F03CC043F0000E456E8C
:100814000A0E446EA7EC04F04250300F28EC05F0A9
:1008240047C042F048C043F0000E456E0A0E446EC5
:10083400A7EC04F04250300F28EC05F01200730EC0
:10084400D36E000E3A6E72EC05F0110E0001DE6FED
:10085400010EDF6F47EC05F087EC05F0880ED56ECE
:10086400F80ED76E310ED66EF294F28A000E376E01
:10087400000E366E000E356E000E346E8A96939618
:100884009280010EC26EA60EC16E3E0EC06E9E9C7C
:100894009D8CC2829380928693889282928492885D
:1008A400899289948998F28CF28E040084EC04F085
:1008B400FCD7000E406E000E3F6E3D503E10D8B483
:1008C4001CD0010E416E04D0D8903D363E36412AEC
:1008D4003EAEFAD7D8903F3640363D503B5C3E5052
:1008E4003C58D8A005D03D503B5E3E503C5A3F801A
:1008F400D8903E323D32412EEDD73FC03BF040C050
:100904003CF01200ABA203D0AB92AB98AB889EA88C
:1009140012001A501B10D8B41200800E1624D96E7F
:10092400000E1720DA6EDF50AD6E164A172A1750E4
:1009340004E1400E165CD8A004D0000E176E000E21
:10094400166E1A06D8A01B06120044504510D8B4DF
:1009540018D0010E466E04D0D89044364536462A47
:1009640045AEFAD74450425C45504358D8A004D011
:100974004450425E4550435AD89045324432462E44
:10098400F1D742C042F043C043F012003A90AECFD8
:100994003BF021501BE1080E205CD8B01200C00EC1
:1009A4001E24D96E000E1F20DA6E3BC0DFFF1E4AE4
:1009B4001F2A204A212A1F5004E1080E1E5CD8A0D9
:1009C4001200000E1F6E000E1E6E120012000001B7
:1009D400DD6F1B501BE1400E1A5CD8B01200800E74
:1009E4001824D96E000E1920DA6EDDC0DFFF184A14
:1009F400192A1A4A1B2A195004E1400E185CD8A07F
:100A04001200000E196E000E186E120012001E0E57
:100A1400F66E0B0EF76E000EF86E0900F5CF5EF061
:100A24000900F5CF5FF000EE80F0480EEE6AE806AC
:100A3400FDE100EE01F03A0EEE6AE806FDE1609099
:100A44006092000EF86E000121EF04F03B6E1B5023
:100A54001BE1400E1A5CD8B01200800E1824D96E27
:100A6400000E1920DA6E3BC0DFFF184A192A1A4A11
:100A74001B2A195004E1400E185CD8A01200000E85
:100A8400196E000E186E120012000BD0DEC0F6FFB5
:100A9400DFC0F7FF0800F550E9EC04F00001DE4B7D
:100AA400DF2BDEC0F6FFDFC0F7FF0800F5500009BA
:100AB400D8B41200EBD70AD03CC0F6FF3DC0F7FF14
:100AC4000800F55028EC05F03C4A3D2A3CC0F6FFEE
:100AD4003DC0F7FF0800F5500009D8B41200ECD768
:100AE400900EAB6E240EAC6E080EAA6E110EAF6E95
:100AF4009E9A9D8A120049C047F04AC048F0A4EC6F
:100B040003F0200E28EC05F0120002D084EC04F06F
:0C0B14001A501B10D8B41200F9D7881337
:020000040020DA
:08000000FFFFFFFFFFFFFFFF00
:020000040030CA
:0E000000FFC80E1FFF8081FF03C003E0034016
:00000001FF
